S012000052435F50726F6A6563742E7372656347
S113000045C0000060C000005EC000005CC000008D
S11300105AC0000058C0000056C0000054C0000080
S113002052C0000050C000004EC000004CC0000090
S11300304AC0000048C0000046C0000044C00000A0
S113004042C0000040C00000ECC000003CC0000002
S11300503AC0000038C0000036C0000034C00000C0
S113006032C0000030C000002EC000002CC00000D0
S11300702AC0000028C0000026C0000024C00000E0
S113008022C0000020C000001EC0000011241FBEBA
S1130090CFEFD0E1DEBFCDBF11E0A0E0B1E0ECE3F3
S11300A0F4E000E00BBF02C007900D92AE34B1073C
S11300B0D9F721E0AEE4B1E001C01D92A635B20744
S11300C0E1F798D1B9C19CCFCF93DF9380914E01D2
S11300D0882309F44EC080914E01823079F0833038
S11300E021F1813009F043C0E0914E01F0E0EF5A74
S11300F0FE4F808180538093500139C0A0914E01FE
S1130100E0914E01B0E0A05BBE4F8C91880F805609
S1130110982F990F990F890FF0E0EF5AFE4F9081B5
S11301209053890F8093500122C0C0914E01E091F9
S11301304E01A0914E01D0E0C15BDE4F98819053F7
S1130140B0E0AF5ABE4F8C918053282F34E6939F72
S1130150200D1124F0E0E05BFE4F8081880F805673
S1130160982F990F990F890F820F80935001109245
S11301704E01DF91CF9108951092900087E689B9DE
S11301801BB888E98AB986E080939500789408952D
S113019018BA95E09A95F1F7000028B394E029275E
S11301A028BB85BB85E08A95F1F7000088B39827C2
S11301B098BB8FE19EE40197F1F700C00000089519
S11301C091E098BB95E09A95F1F7000028B394E08C
S11301D0292728BB85BB85E08A95F1F7000088B301
S11301E0982798BB8FE19EE40197F1F700C00000C7
S11301F00895611103C08058CBCF0895613011F484
S11302008054C6CF0895CF93DF93EC01888188236F
S113021029F02196D5DF89918111FCCFDF91CF910F
S113022008951F920F920FB60F9211240BB60F92DE
S11302302F933F934F935F936F937F938F939F93EA
S1130240AF93BF93EF93FF938CB180934F01809151
S11302504F01863479F485E08093510160E070E0C9
S113026088E090E0C6DF82E291E0CDDF8091510129
S11302708BBB8DC080914F01823479F48AE08093E6
S1130280510160E070E088E090E0B3DF8AE291E041
S1130290BADF809151018BBB7AC080914F018235C6
S11302A079F485E08093510160E070E088E090E0AB
S11302B0A0DF83E391E0A7DF809151018BBB67C08E
S11302C080914F018C3479F485E08093510160E092
S11302D070E088E090E08DDF8CE391E094DF809122
S11302E051018BBB54C080914F01833571F410923E
S11302F0510160E070E088E090E07BDF85E491E00C
S113030082DF809151018BBB42C080914F018033C9
S113031078F180914F018A3358F580914E018330F2
S113032038F561E070E088E090E063DF8AE491E012
S11303306ADF61E070E088E090E05BDF80914F016C
S113034090E03EDF2FEF87EA91E621508040904015
S1130350E1F700C00000E0914E0181E08E0F809330
S11303604E0180914F01F0E0EE5AFE4F80830FC0A2
S113037080914F01853621F080914E01833039F40C
S1130380E0914E01F0E0EE5AFE4F10829DDEFF91A7
S1130390EF91BF91AF919F918F917F916F915F91F9
S11303A04F913F912F910F900BBE0F900FBE0F9066
S11303B01F9018952FEF81EE94E0215080409040DB
S11303C0E1F700C0000088E3E3DE25E02A95F1F7B9
S11303D000008CE0DDDE85E08A95F1F7000081E025
S11303E0D7DE8FED9EE20197F1F700C0000086E0B2
S11303F0CFCE08958FEF8ABB87BB84BB8093610007
S11304008DE683BF85BDD6DF60E080E0F2DE81E16A
S113041091E0F9DE61E080E0ECDE80E091E0F3DE83
S1130420ABDE85E0809362008091500181BF8091B2
S10F04305001845183BDF8CFF894FFCF35
S113043C5370656564203A20202020202020202041
S113044C005374617465203A202020202020202041
S113045C2000464F5257415244004241434B5741AE
S113046C5244005249474854202020004C454654DD
S111047C202020200053544F50202020200028
S9030000FC
