S01600004261736B657442616C6C5F432B2B2E7372656341
S113000087C00000B3C40000C7C4000002C50000DC
S11300101EC50000A5C00000A3C00000A1C00000D0
S11300209FC000009DC000009BC0000099C000005C
S113003097C0000095C0000062C3000091C000009A
S1130040EBC200008DC000008BC0000089C000001E
S113005087C0000085C0000083C0000081C000008C
S11300607FC000007DC000007BC0000079C000009C
S113007077C00000D5C3000073C0000071C0000049
S11300806FC000006DC000006BC000000763423603
S1130090B79BD8A71A39685618AEBAAB558C1D3C15
S11300A0B7CC5763BD6DEDFD753EF6177231BF00D9
S11300B00000803F08000000BE922449123EABAA13
S11300C0AA2ABECDCCCC4C3E00000080BEABAAAA6E
S11300D0AA3E00000000BF000000803F00000000B6
S11300E000084178D3BB4387D1133D190E3CC3BDEF
S11300F04282AD2B3E68EC8276BED98FE1A93E4C9C
S113010080EFFFBE01C4FF7F3F00000000004A05EE
S113011011241FBECFEFD0E1DEBFCDBF11E0A0E0C0
S1130120B1E0E4E4F7E100E00BBF02C007900D92F8
S1130130A039B107D9F721E0A0E9B1E001C01D92CF
S1130140AE3BB207E1F710E0C8E8D0E003C0219766
S1130150FE01F8D7C738D107D1F78ED40C94A00B81
S11301604FCFFC0110A611A612A60895AF92BF921C
S1130170CF92DF92EF92FF920F931F93CF93DF936F
S1130180CDB7DEB727970FB6F894DEBF0FBECDBF4D
S1130190641789F18C01C62ED12C27E0629F800D53
S11301A0911D112427E0FC01DE01119601900D92AE
S11301B02A95E1F7E42EF12C580127E0429FA00C88
S11301C0B11C112447E050E0B501C5D787E0FE011A
S11301D03196D50101900D928A95E1F7D801AC0DC5
S11301E0BD1D93968C919397F801EE0DFF1D93A17D
S11301F093969C9383A327960FB6F894DEBF0FBE05
S1130200CDBFDF91CF911F910F91FF90EF90DF90C1
S1130210CF90BF90AF900895EF92FF920F931F93EA
S1130220CF93DF938C01FC0121A530E0C901019734
S11302301816190624F57801C0E0D0E06C2F219639
S1130240C217D30774F4F70173A1B496CE01462FF5
S11302505191751708F4482F019682179307C1F737
S113026001C0462FC80182DFF80121A530E0FFEF6D
S1130270EF1AFF0AC9010197C817D907FCF2F80160
S113028083A1811182A7DF91CF911F910F91FF90DC
S1130290EF900895FC0190A59F5F90A70895FC013D
S11302A081A50895FC0180A50895FC0160A7089527
S11302B027E0629F800D911D112408958F929F92D3
S11302C0AF92BF92CF92DF92EF92FF920F931F9360
S11302D0CF93DF93942E14161506B4F55B018B01AE
S11302E0A40EB51EC0E0D0E0F80181908F019A946D
S11302F0692D70E080E090E067D49B01AC0160E080
S113030070E080E291E451D56B017C01682D70E0CE
S113031060537109072E000C880B990B57D4A70161
S11303209601E0D46B017C01BE01DD0F880B990BB3
S11303304DD49B01AC01C701B601B1D314D4EB0178
S11303400A151B0589F602C0C0E0D0E0CE01DF919A
S1130350CF911F910F91FF90EF90DF90CF90BF90BE
S1130360AF909F908F900895EF92FF921F93CF9339
S1130370DF93EC017B016C5F7F4F42E050E09EDF36
S1130380182F882349F189A547E050E0B7019E0161
S1130390E7E08E9F200D311D1124C901DCD629A56B
S11303A0FE0137E0239FE00DF11D11241682FE01AA
S11303B0E20FF11D13A32F5F29A730E0215031096B
S11303C0C901880F991F880F991F880F991F821BD5
S11303D0930B8C0F9D1F02C080E191E0DF91CF91C0
S11303E01F91FF90EF900895FC0182A508951BBA18
S11303F025E02A95F1F700002BB394E029272BBBC5
S113040025E02A95F1F7000085BB85E08A95F1F790
S113041000008BB398279BBB87EC90E00197F1F722
S113042000C00000089591E09BBB25E02A95F1F7F8
S113043000002BB394E029272BBB25E02A95F1F784
S1130440000085BB85E08A95F1F700008BB39827FF
S11304509BBB87EC90E00197F1F700C00000089582
S1130460CF93DF93EC018881882329F02196DBDF89
S113047089918111FCCFDF91CF9108950F931F9340
S1130480CF93DF9300D000D0CDB7DEB79F938F9387
S11304908CE091E09F938F938E010F5F1F4F1F930A
S11304A00F936AD6C801DCDF0F900F900F900F9066
S11304B00F900F900F900F900F900F90DF91CF91AE
S11304C01F910F91089581E092DF8FE39FE10197DF
S11304D0F1F700C000000895E199FECF9FBB8EBBE9
S11304E0E09A8DB30895AF92BF92CF92DF92EF92CC
S11304F0FF920F931F93CF93DF93CDB7DEB7A397EC
S11305000FB6F894DEBF0FBECDBFCE0101965C01DD
S113051000E010E1680196E0C90ED11C7501C80124
S1130520DBDFF70181937F010F5F1F4F0C151D0562
S1130530B1F7F5011682B50181E991E015DFF7E025
S1130540AF0EB11C86018EE1C81680E1D80611F702
S113055081E991E061DEA3960FB6F894DEBF0FBE89
S1130560CDBFDF91CF911F910F91FF90EF90DF905E
S1130570CF90BF90AF9008958230E1F028F48823A3
S1130580B1F0813039F012C0843051F030F0853050
S113059051F00CC02AE131E00FC024E231E00CC07C
S11305A029E231E009C02EE231E006C0089525E1D8
S11305B031E002C02FE131E0822F932F08958FEFB5
S11305C0809361008093640085E083BF83E882BFE9
S11305D097B781E0892787BF089584E08EBD2CED0D
S11305E03BE03DBD2CBD97B7892787BF089584E0C4
S11305F080938A0026E937EE30938900209388009F
S1130600EDE7F0E090818927808308958AEA80935A
S11306106A008FE089BF08951F920F920FB60F9260
S113062011240BB60F922F938F939F93EF93FF9305
S1130630809165008370833011F0811107C0E5E675
S1130640F0E0208192E09227908306C0E5E6F0E096
S1130650208193E092279083909190019230C9F089
S113066028F4992341F0913059F03DC0933019F0AA
S11306709430A9F138C080910A018093620033C09C
S1130680E091BD01F0E0E050FF4F80818093620073
S11306902AC08230A1F4E0910B018DECE89F812DFA
S11306A01124869586958695880F982F990F990F12
S11306B0890FE81BF0E0E050FF4F80810DC080916E
S11306C00B01EDEC8E9FE12D1124E695E695E69560
S11306D0F0E0E050FF4F80818093620004C080917D
S11306E00A0180936200FF91EF919F918F912F9166
S11306F00F900BBE0F900FBE0F901F9018951F9276
S11307000F920FB60F9211240BB60F922F933F93B3
S11307104F935F936F937F938F939F93AF93BF9305
S1130720CF93EF93FF9380919001823009F054C0EE
S113073080910B01811156C04FC083E08093BD01AD
S113074084E08093900158C08091BD0181508093D2
S1130750BD018091BD0181114FC082E08093900161
S11307608CE380930B0148C080919001833089F41D
S113077081E991E08FDD81E991E094DDC82F81E981
S113078091E08DDDC817C0F160E081E991E08DDD75
S113079033C080919001843079F58091BD018150FE
S11307A08093BD018091BD01811126C08CDE83E35D
S11307B091E056DE8091BC0190E060DE1092BC01B5
S11307C02FEF8DE399E4215080409040E1F700C081
S11307D000001092900110C080919001813009F0C6
S11307E0C3CFB2CF80910B01815080930B018091D4
S11307F00B01882309F4A1CFFF91EF91CF91BF9111
S1130800AF919F918F917F916F915F914F913F91A4
S11308102F910F900BBE0F900FBE0F901F90189545
S11308201F920F920FB60F9211240BB60F920F93D3
S11308301F932F933F934F935F936F937F938F9364
S11308409F93AF93BF93EF93FF93CF93DF93CDB772
S1130850DEB72B97DEBFCDBF80919001823029F1A6
S113086028F4882351F08130A1F063C0833009F467
S11308702FC0843009F452C05CC025DE81E8B7DDA6
S113088082E491E0EDDD80ECB2DD81E591E0E8DD2C
S113089050C019DE82E691E0E3DD8091BD0190E075
S11308A0EDDD8BE691E0DCDD44C00DDE8FE691E00A
S11308B0D7DD8091BC0190E0E1DD80EC98DD8CE730
S11308C091E0CEDD81E991E08FDD90E0D7DD31C0AC
S11308D081E991E0E7DC682F81E991E0E9DC182FF8
S11308E0092F81E991E0DEDC47DE0F931F939F938C
S11308F08F9389E891E09F938F938E010F5F1F4F31
S11309001F930F9339D4DFDD83E871DDC801A8DDBF
S11309100FB6F894DEBF0FBECDBF0BC0D4DD82E6A8
S113092091E09EDD8091BD0190E0A8DD8BE691E031
S113093097DD2B960FB6F894DEBF0FBECDBFDF91C7
S1130940CF91FF91EF91BF91AF919F918F917F9143
S11309506F915F914F913F912F911F910F910F9044
S11309600BBE0F900FBE0F901F9018951F920F9201
S11309700FB60F9211248F9380919001811106C0BC
S113098081E08093900185E08093BD018F910F9069
S11309900FBE0F901F9018951F920F920FB60F92D3
S11309A011240BB60F922F933F934F935F936F9342
S11309B07F938F939F93AF93BF93EF93FF9381E9BB
S11309C091E06DDC882391F090919001992319F0C6
S11309D0933051F00BC06FEF680F81E991E065DC53
S11309E083E08093900102C010929001FF91EF91F7
S11309F0BF91AF919F918F917F916F915F914F9133
S1130A003F912F910F900BBE0F900FBE0F901F9030
S1130A1018951F920F920FB60F9211248F93109274
S1130A20BC0180919001813019F0823031F009C00D
S1130A30109290011092BD0104C010929001109286
S1130A400B018F910F900FBE0F901F9018951F925E
S1130A500F920FB60F9211248F93809190018230E0
S1130A6029F48091BC018F5F8093BC018F910F901A
S1130A700FBE0F901F9018958FEF8ABB8093610073
S1130A8084BB8093640078942EDD99DDA6DDAFDD10
S1130A90BDDDFFCF81E991E064CB08955058BB27B9
S1130AA0AA270ED0E5C0D6D030F0DBD020F031F448
S1130AB09F3F11F41EF4CBC00EF4E095E7FBC1C0D8
S1130AC0E92FE7D080F3BA17620773078407950705
S1130AD018F071F49EF5FFC00EF4E0950B2EBA2FBA
S1130AE0A02D0B01B90190010C01CA01A001112430
S1130AF0FF27591B99F0593F50F4503E68F11A16DC
S1130B00F040A22F232F342F4427585FF3CF46956C
S1130B1037952795A795F0405395C9F77EF41F168E
S1130B20BA0B620B730B840BBAF09150A1F0FF0F58
S1130B30BB1F661F771F881FC2F70EC0BA0F621F44
S1130B40731F841F48F4879577956795B795F79534
S1130B509E3F08F0B3CF9395880F08F09927EE0FC6
S1130B6097958795089504D06894B111B5C00895F8
S1130B7098D088F09F5790F0B92F9927B751A0F0DB
S1130B80D1F0660F771F881F991F1AF0BA95C9F71D
S1130B9012C0B13081F09FD0B1E008959CC0672F9E
S1130BA0782F8827B85F39F0B93FCCF386957795CD
S1130BB06795B395D9F73EF49095809570956195B6
S1130BC07F4F8F4F9F4F0895E89409C097FB3EF4E1
S1130BD090958095709561957F4F8F4F9F4F992386
S1130BE0A9F0F92F96E9BB279395F6958795779504
S1130BF06795B795F111F8CFFAF4BB0F11F460FFC4
S1130C001BC06F5F7F4F8F4F9F4F16C0882311F01B
S1130C1096E911C0772321F09EE8872F762F05C02F
S1130C20662371F096E8862F70E060E02AF09A95CA
S1130C30660F771F881FDAF7880F9695879597F9BF
S1130C40089597F99F6780E870E060E008959FEF4A
S1130C5080EC089500240A9416161706180609064F
S1130C60089500240A94121613061406050608951E
S1130C70092E0394000C11F4882352F0BB0F40F4A6
S1130C80BF2B11F460FF04C06F5F7F4F8F4F9F4FE6
S1130C90089557FD9058440F551F59F05F3F71F068
S1130CA04795880F97FB991F61F09F3F79F08795CF
S1130CB00895121613061406551FF2CF4695F1DF58
S1130CC008C0161617061806991FF1CF86957105E8
S1130CD0610508940895E894BB2766277727CB011C
S1130CE097F908950BD0C4CFB5DF28F0BADF18F018
S1130CF0952309F0A6CFABCF1124EECFCADFA0F322
S1130D00959FD1F3950F50E0551F629FF001729F9C
S1130D10BB27F00DB11D639FAA27F00DB11DAA1FBB
S1130D20649F6627B00DA11D661F829F2227B00D08
S1130D30A11D621F739FB00DA11D621F839FA00D93
S1130D40611D221F749F3327A00D611D231F849FE3
S1130D50600D211D822F762F6A2F11249F5750403A
S1130D608AF0E1F088234AF0EE0FFF1FBB1F661FD5
S1130D70771F881F91505040A9F79E3F510570F08E
S1130D8060CFAACF5F3FECF3983EDCF3869577956E
S1130D906795B795F795E7959F5FC1F7FE2B880F89
S1130DA0911D9695879597F90895FA01EE0FFF1F07
S1130DB030962105310599F16115710561F480388A
S1130DC0BFE39B0749F168949038810561F080384E
S1130DD0BFEF9B0741F0992342F5FF3FE105310541
S1130DE0210511F1E8940894E795D901AA2329F47F
S1130DF0AB2FBE2FF85FD0F310C0FF5F70F4A69541
S1130E00E0F7F73950F019F0FF3A38F49F779F93E1
S1130E100CD00F9007FC905808953EF018CF60E076
S1130E2070E080E89FE308954FE79F775F934F93C7
S1130E303F932F939ED02F913F914F915F9152DF1B
S1130E4005C019F40EF0FDCE46CF01CF2ADFC8F35A
S1130E509638C0F707F80F92E8942BE33AEA48EB88
S1130E605FE74EDF0F920F920F924DB75EB70F926E
S1130E70C0D0ECE8F0E016D04F915F91EF91FF9174
S1130E80E595EE1FFF1F49F0FE57E0684427EE0F7B
S1130E90441FFA95E1F74195550B32D00F9007FEA8
S1130EA026C00895DF93CF931F930F93FF92EF9281
S1130EB0DF927B018C01689405C0DA2EEF011EDFFE
S1130EC0FE01E894A5912591359145915591AEF394
S1130ED0EF01F6DDFE019701A801DA9479F7DF90BE
S1130EE0EF90FF900F911F91CF91DF9108959B0197
S1130EF0AC0160E070E080E89FE3AEC0A2CE14C114
S1130F00D0DEE8F39923D9F3940F511DBBF391502C
S1130F10504094F059F0882332F0660F771F881FF1
S1130F2091505040C1F79E3F510544F7880F911DE1
S1130F309695879597F908955F3FACF0983E9CF09D
S1130F40BB27869577956795B79508F4B160939517
S1130F50C1F7BB0F58F711F460FFE8CF6F5F7F4F05
S1130F608F4F9F4FE3CFB8CE0EF0DEC070CE6894A3
S1130F7068CE97DEC8F39923D1F3C6F3DF93CF93FA
S1130F801F930F93FF92C92FDD2788232AF02197FF
S1130F90660F771F881FDAF720E030E040E85FEB48
S1130FA09FE3883920F0803E30F021968F7777DDFB
S1130FB0E4EBF0E003C073DDE1EEF0E073DF8B01FE
S1130FC0BE01EC01FB2E6F5771097595771F880BD5
S1130FD0990BFCDD28E132E741E35FE38FDEAF2DBF
S1130FE09801AE01FF900F911F91CF91DF9168DDC1
S1130FF03FCEFA01DC01AA0FBB1F9B01AC01BF5716
S113100028F422273327442750781FC0B75188F487
S1131010AB2F0024469537952795011CA395D2F351
S1131020002069F0220F331F441FB395DAF30DD06B
S113103035CD61307105A0E88A07B94630F49B01CB
S1131040AC016627772788279078309621F0208393
S113105031834283538308950CD00ACE02DE40F0DC
S1131060F9DD30F021F45F3F19F0EBCD511134CEAE
S1131070EECD0FDE98F39923C9F35523B1F3951BF5
S1131080550BBB27AA2762177307840738F09F5FA5
S11310905F4F220F331F441FAA1FA9F333D00E2E14
S11310A03AF0E0E830D091505040E695001CCAF781
S11310B029D0FE2F27D0660F771F881FBB1F261746
S11310C037074807AB07B0E809F0BB0B802DBF0119
S11310D0FF2793585F4F2AF09E3F510568F0B1CD2A
S11310E0FBCD5F3FECF3983EDCF3869577956795EF
S11310F0B795F7959F5FC9F7880F911D96958795CA
S113110097F90895E1E0660F771F881FBB1F6217E8
S113111073078407BA0720F0621B730B840BBA0BA6
S1131120EE1F88F7E09508959F3F31F0915020F429
S1131130879577956795B795880F911D96958795AF
S113114097F90895EE0FFF1F0024001C0BBE0790B3
S1131150F691E02D09946817790768F4FB01DC0126
S1131160E40FF51FA40FB51F02C002900E92415068
S11311705040D8F7089536C20F931F93CF93DF934F
S1131180CDB7DEB72E970FB6F894DEBF0FBECDBF36
S11311900D891E8986E08C831A8309838FEF9FE76C
S11311A09E838D83AE01475E5F4F6F89788DCE013C
S11311B0019610D0EF81F885E00FF11F10822E9672
S11311C00FB6F894DEBF0FBECDBFDF91CF911F9154
S11311D00F9108952F923F924F925F926F927F9258
S11311E08F929F92AF92BF92CF92DF92EF92FF9233
S11311F00F931F93CF93DF93CDB7DEB72B970FB623
S1131200F894DEBF0FBECDBF6C017B018A01FC01E7
S113121017821682838181FFBFC1CE0101963C01F2
S1131220F6019381F70193FD859193FF81917F01ED
S1131230882309F4ADC1853239F493FD859193FF78
S113124081917F01853221F4B60190E0DFD1E8CFAE
S1131250912C212C312CFFE1F315D8F08B3279F04D
S113126038F4803279F08332A1F4232D20611DC03B
S11312708D3261F0803369F4232D216016C0832DF3
S11312808260382EE32DE4603E2E2AC0F32DF860F0
S11312901DC037FC2DC020ED280F2A3040F08E32BF
S11312A0B9F436FC75C1232D2064322E19C036FEE4
S11312B006C08AE0989E200D1124922E11C0EAE007
S11312C02E9E200D1124222EF32DF0623F2E08C0F5
S11312D08C3621F4832D8068382E02C0883641F480
S11312E0F70193FD859193FF81917F018111B3CF24
S11312F0982F9F7D9554933028F40C5F1F4F9FE3E4
S113130099830DC0833631F0833771F0833509F04A
S113131055C020C0F801808189830E5F1F4F882447
S11313208394912C530112C02801F2E04F0E511CFA
S1131330F801A080B18036FE03C0692D70E002C0C0
S11313406FEF7FEFC50157D14C018201F32DFF7779
S11313503F2E15C0280122E0420E511CF801A08046
S1131360B18036FE03C0692D70E002C06FEF7FEFDD
S1131370C5012DD14C01F32DF0683F2E820133FCC1
S113138019C0822D90E088169906A0F4B60180E277
S113139090E03CD12A94F5CFF50137FC859137FED6
S11313A081915F01B60190E031D121102A9421E0AE
S11313B0821A91088114910479F7E1C0843611F0FE
S11313C0893639F5F80137FE07C060817181828161
S11313D093810C5F1F4F08C060817181072E000C40
S11313E0880B990B0E5F1F4FF32DFF763F2E97FF4F
S11313F009C090958095709561957F4F8F4F9F4F51
S1131400F0683F2E2AE030E0A3013CD1882E8618F4
S113141044C0853731F4232D2F7EB22E2AE030E0EC
S113142025C0932D997FB92E8F36C1F018F48835D5
S113143079F0AEC0803719F0883721F0A9C0E92FC0
S1131440E061BE2EB4FE0DC0FB2DF460BF2E09C0BA
S113145034FE0AC0292F2660B22E06C028E030E0F0
S113146005C020E130E002C020E132E0F801B7FE1F
S113147007C060817181828193810C5F1F4F06C018
S11314806081718180E090E00E5F1F4FA301FAD06C
S1131490882E8618FB2DFF773F2E36FE0DC0232D98
S11314A02E7FA22E891458F434FE0BC032FC09C0DE
S11314B0832D8E7EA82E05C0B82CA32C03C0B82C77
S11314C001C0B92CA4FE0FC0FE01E80DF11D8081FE
S11314D0803321F49A2D997EA92E09C0A2FE06C05C
S11314E0B394B39404C08A2D867809F0B394A3FC12
S11314F010C0A0FE06C0B21480F4280C922C9B18D5
S11315000DC0B21458F4B60180E290E07FD0B394D9
S1131510F8CFB21418F42B1802C0982C212CA4FE76
S11315200FC0B60180E390E071D0A2FE16C0A1FC0A
S113153003C088E790E002C088E590E0B6010CC0E3
S11315408A2D867851F0A1FE02C08BE201C080E2B0
S1131550A7FC8DE2B60190E059D0891430F4B601AD
S113156080E390E053D09A94F8CF8A94F301E80D85
S1131570F11D8081B60190E049D08110F6CF222080
S113158009F44ECEB60180E290E040D02A94F7CF21
S1131590F6018681978102C08FEF9FEF2B960FB6DD
S11315A0F894DEBF0FBECDBFDF91CF911F910F9195
S11315B0FF90EF90DF90CF90BF90AF909F908F906F
S11315C07F906F905F904F903F902F900895FC0113
S11315D00590615070400110D8F7809590958E0F5A
S11315E09F1F0895FB01DC0102C001900D92415040
S11315F05040D8F70895FC016150704001900110EB
S1131600D8F7809590958E0F9F1F08950F931F9381
S1131610CF93DF93FB01238121FD03C08FEF9FEF65
S11316202CC022FF16C04681578124813581421780
S1131630530744F4A081B1819D012F5F3F4F318353
S113164020838C93268137812F5F3F4F37832683F6
S113165014C08B01EC01FB010084F185E02D099598
S1131660892BE1F6D80116968D919C9117970196D6
S113167017969C938E931697CE01DF91CF911F916D
S11316800F910895FA01AA27283051F1203181F1F0
S1131690E8946F936E7F6E5F7F4F8F4F9F4FAF4F76
S11316A0B1E03ED0B4E03CD0670F781F891F9A1F89
S11316B0A11D680F791F8A1F911DA11D6A0F711D3D
S11316C0811D911DA11D20D009F468943F912AE049
S11316D0269F11243019305D3193DEF6CF01089531
S11316E0462F4770405D4193B3E00FD0C9F7F6CF62
S11316F0462F4F70405D4A3318F0495D31FD40522A
S1131700419302D0A9F7EACFB4E0A69597958795BF
S113171077956795BA95C9F700976105710508959E
S11317209B01AC010A2E069457954795379527954A
S1131730BA95C9F7620F731F841F951FA01D0895E2
S1071740F894FFCF47
S1131744407924301912027800103F3225640000D5
S113175453484954003173742E003273742E003389
S113176473742E003473742E003573742E00367320
S1131774742E00596F757220506F696E74206973EA
S11317842000596F752063616E2073656C65637402
S113179400312E506C617920322E5265636F72646D
S11317A4730057616974696E672000736563005937
S11317B44F555220504F494E543A200042455354F9
S11317C420504F494E543A200025732573256E004A
S9030000FC
